{
  "contractName": "Donation",
  "abi": [
    {
      "inputs": [],
      "stateMutability": "nonpayable",
      "type": "constructor"
    },
    {
      "anonymous": false,
      "inputs": [
        {
          "indexed": true,
          "internalType": "address",
          "name": "donor",
          "type": "address"
        },
        {
          "indexed": false,
          "internalType": "uint256",
          "name": "amount",
          "type": "uint256"
        }
      ],
      "name": "Donated",
      "type": "event"
    },
    {
      "inputs": [
        {
          "internalType": "address",
          "name": "",
          "type": "address"
        }
      ],
      "name": "donations",
      "outputs": [
        {
          "internalType": "uint256",
          "name": "",
          "type": "uint256"
        }
      ],
      "stateMutability": "view",
      "type": "function"
    },
    {
      "inputs": [],
      "name": "owner",
      "outputs": [
        {
          "internalType": "address",
          "name": "",
          "type": "address"
        }
      ],
      "stateMutability": "view",
      "type": "function"
    },
    {
      "inputs": [],
      "name": "donate",
      "outputs": [],
      "stateMutability": "payable",
      "type": "function"
    },
    {
      "inputs": [],
      "name": "getBalance",
      "outputs": [
        {
          "internalType": "uint256",
          "name": "",
          "type": "uint256"
        }
      ],
      "stateMutability": "view",
      "type": "function"
    }
  ],
  "bytecode": "0x608060405234801561000f575f80fd5b50335f806101000a81548173ffffffffffffffffffffffffffffffffffffffff021916908373ffffffffffffffffffffffffffffffffffffffff1602179055506104168061005c5f395ff3fe60806040526004361061003e575f3560e01c806312065fe0146100425780638da5cb5b1461006c578063cc6cb19a14610096578063ed88c68e146100d2575b5f80fd5b34801561004d575f80fd5b506100566100dc565b6040516100639190610218565b60405180910390f35b348015610077575f80fd5b506100806100e3565b60405161008d9190610270565b60405180910390f35b3480156100a1575f80fd5b506100bc60048036038101906100b791906102b7565b610106565b6040516100c99190610218565b60405180910390f35b6100da61011b565b005b5f47905090565b5f8054906101000a900473ffffffffffffffffffffffffffffffffffffffff1681565b6001602052805f5260405f205f915090505481565b5f341161015d576040517f08c379a000000000000000000000000000000000000000000000000000000000815260040161015490610362565b60405180910390fd5b3460015f3373ffffffffffffffffffffffffffffffffffffffff1673ffffffffffffffffffffffffffffffffffffffff1681526020019081526020015f205f8282546101a991906103ad565b925050819055503373ffffffffffffffffffffffffffffffffffffffff167f2a01595cddf097c90216094025db714da3f4e5bd8877b56ba86a24ecead8e543346040516101f69190610218565b60405180910390a2565b5f819050919050565b61021281610200565b82525050565b5f60208201905061022b5f830184610209565b92915050565b5f73ffffffffffffffffffffffffffffffffffffffff82169050919050565b5f61025a82610231565b9050919050565b61026a81610250565b82525050565b5f6020820190506102835f830184610261565b92915050565b5f80fd5b61029681610250565b81146102a0575f80fd5b50565b5f813590506102b18161028d565b92915050565b5f602082840312156102cc576102cb610289565b5b5f6102d9848285016102a3565b91505092915050565b5f82825260208201905092915050565b7f446f6e6174696f6e206d7573742062652067726561746572207468616e207a655f8201527f726f000000000000000000000000000000000000000000000000000000000000602082015250565b5f61034c6022836102e2565b9150610357826102f2565b604082019050919050565b5f6020820190508181035f83015261037981610340565b9050919050565b7f4e487b71000000000000000000000000000000000000000000000000000000005f52601160045260245ffd5b5f6103b782610200565b91506103c283610200565b92508282019050808211156103da576103d9610380565b5b9291505056fea2646970667358221220d7fcbab4076056f580b664622c3fb117f488aff3d491b620aea7ee9d46a5f4fe64736f6c63430008150033",
  "immutableReferences": {},
  "source": "// SPDX-License-Identifier: MIT\r\npragma solidity ^0.8.21;\r\n\r\ncontract Donation {\r\n    address public owner;\r\n    mapping(address => uint256) public donations;\r\n\r\n    event Donated(address indexed donor, uint256 amount);\r\n\r\n    constructor() {\r\n        owner = msg.sender;\r\n    }\r\n\r\n    function donate() public payable {\r\n        require(msg.value > 0, \"Donation must be greater than zero\");\r\n        donations[msg.sender] += msg.value;\r\n        emit Donated(msg.sender, msg.value);\r\n    }\r\n\r\n    function getBalance() public view returns (uint256) {\r\n        return address(this).balance;\r\n    }\r\n}\r\n",
  "sourcePath": "C:\\Users\\DELL\\PycharmProjects\\blochain\\blockchain\\contracts\\Donation.sol",
  "compiler": {
    "name": "solc",
    "version": "0.8.21+commit.d9974bed.Emscripten.clang"
  },
  "schemaVersion": "3.4.16",
  "updatedAt": "2025-02-05T05:06:35.887Z",
  "devdoc": {
    "kind": "dev",
    "methods": {},
    "version": 1
  },
  "userdoc": {
    "kind": "user",
    "methods": {},
    "version": 1
  }
}