{
  "contractName": "DonationContract",
  "abi": [
    {
      "inputs": [],
      "stateMutability": "nonpayable",
      "type": "constructor"
    },
    {
      "anonymous": false,
      "inputs": [
        {
          "indexed": true,
          "internalType": "address",
          "name": "donor",
          "type": "address"
        },
        {
          "indexed": false,
          "internalType": "uint256",
          "name": "amount",
          "type": "uint256"
        }
      ],
      "name": "DonationReceived",
      "type": "event"
    },
    {
      "inputs": [
        {
          "internalType": "address",
          "name": "",
          "type": "address"
        }
      ],
      "name": "donations",
      "outputs": [
        {
          "internalType": "uint256",
          "name": "",
          "type": "uint256"
        }
      ],
      "stateMutability": "view",
      "type": "function"
    },
    {
      "inputs": [],
      "name": "owner",
      "outputs": [
        {
          "internalType": "address",
          "name": "",
          "type": "address"
        }
      ],
      "stateMutability": "view",
      "type": "function"
    },
    {
      "inputs": [],
      "name": "donate",
      "outputs": [],
      "stateMutability": "payable",
      "type": "function"
    },
    {
      "inputs": [],
      "name": "withdraw",
      "outputs": [],
      "stateMutability": "nonpayable",
      "type": "function"
    },
    {
      "inputs": [],
      "name": "getBalance",
      "outputs": [
        {
          "internalType": "uint256",
          "name": "",
          "type": "uint256"
        }
      ],
      "stateMutability": "view",
      "type": "function"
    }
  ],
  "bytecode": "0x608060405234801561000f575f80fd5b50335f806101000a81548173ffffffffffffffffffffffffffffffffffffffff021916908373ffffffffffffffffffffffffffffffffffffffff16021790555061056b8061005c5f395ff3fe608060405260043610610049575f3560e01c806312065fe01461004d5780633ccfd60b146100775780638da5cb5b1461008d578063cc6cb19a146100b7578063ed88c68e146100f3575b5f80fd5b348015610058575f80fd5b506100616100fd565b60405161006e919061032b565b60405180910390f35b348015610082575f80fd5b5061008b610104565b005b348015610098575f80fd5b506100a16101f6565b6040516100ae9190610383565b60405180910390f35b3480156100c2575f80fd5b506100dd60048036038101906100d891906103ca565b610219565b6040516100ea919061032b565b60405180910390f35b6100fb61022e565b005b5f47905090565b5f8054906101000a900473ffffffffffffffffffffffffffffffffffffffff1673ffffffffffffffffffffffffffffffffffffffff163373ffffffffffffffffffffffffffffffffffffffff1614610191576040517f08c379a00000000000000000000000000000000000000000000000000000000081526004016101889061044f565b60405180910390fd5b5f8054906101000a900473ffffffffffffffffffffffffffffffffffffffff1673ffffffffffffffffffffffffffffffffffffffff166108fc4790811502906040515f60405180830381858888f193505050501580156101f3573d5f803e3d5ffd5b50565b5f8054906101000a900473ffffffffffffffffffffffffffffffffffffffff1681565b6001602052805f5260405f205f915090505481565b5f3411610270576040517f08c379a0000000000000000000000000000000000000000000000000000000008152600401610267906104b7565b60405180910390fd5b3460015f3373ffffffffffffffffffffffffffffffffffffffff1673ffffffffffffffffffffffffffffffffffffffff1681526020019081526020015f205f8282546102bc9190610502565b925050819055503373ffffffffffffffffffffffffffffffffffffffff167f264f630d9efa0d07053a31163641d9fcc0adafc9d9e76f1c37c2ce3a558d2c5234604051610309919061032b565b60405180910390a2565b5f819050919050565b61032581610313565b82525050565b5f60208201905061033e5f83018461031c565b92915050565b5f73ffffffffffffffffffffffffffffffffffffffff82169050919050565b5f61036d82610344565b9050919050565b61037d81610363565b82525050565b5f6020820190506103965f830184610374565b92915050565b5f80fd5b6103a981610363565b81146103b3575f80fd5b50565b5f813590506103c4816103a0565b92915050565b5f602082840312156103df576103de61039c565b5b5f6103ec848285016103b6565b91505092915050565b5f82825260208201905092915050565b7f4f6e6c79206f776e65722063616e2077697468647261770000000000000000005f82015250565b5f6104396017836103f5565b915061044482610405565b602082019050919050565b5f6020820190508181035f8301526104668161042d565b9050919050565b7f446f6e6174696f6e206d7573742062652067726561746572207468616e2030005f82015250565b5f6104a1601f836103f5565b91506104ac8261046d565b602082019050919050565b5f6020820190508181035f8301526104ce81610495565b9050919050565b7f4e487b71000000000000000000000000000000000000000000000000000000005f52601160045260245ffd5b5f61050c82610313565b915061051783610313565b925082820190508082111561052f5761052e6104d5565b5b9291505056fea26469706673582212200d6096ea8bf8eaaa4375234b603864991d2d70c7f6b8b55b1f42e3e674a772ac64736f6c63430008150033",
  "immutableReferences": {},
  "source": "// SPDX-License-Identifier: MIT\r\npragma solidity ^0.8.0;\r\n\r\ncontract DonationContract {\r\n    address public owner;\r\n    mapping(address => uint256) public donations;\r\n\r\n    event DonationReceived(address indexed donor, uint256 amount);\r\n\r\n    constructor() {\r\n        owner = msg.sender;\r\n    }\r\n\r\n    function donate() public payable {\r\n        require(msg.value > 0, \"Donation must be greater than 0\");\r\n        donations[msg.sender] += msg.value;\r\n        emit DonationReceived(msg.sender, msg.value);\r\n    }\r\n\r\n    function withdraw() public {\r\n        require(msg.sender == owner, \"Only owner can withdraw\");\r\n        payable(owner).transfer(address(this).balance);\r\n    }\r\n\r\n    function getBalance() public view returns (uint256) {\r\n        return address(this).balance;\r\n    }\r\n}\r\n",
  "sourcePath": "C:\\Users\\DELL\\PycharmProjects\\blochain\\contracts\\Donation.sol",
  "compiler": {
    "name": "solc",
    "version": "0.8.21+commit.d9974bed.Emscripten.clang"
  },
  "schemaVersion": "3.4.16",
  "updatedAt": "2025-02-04T11:20:02.524Z",
  "devdoc": {
    "kind": "dev",
    "methods": {},
    "version": 1
  },
  "userdoc": {
    "kind": "user",
    "methods": {},
    "version": 1
  }
}